:020000040000FA
:02000000A22834
:080008008B13A100030EA200FE
:100010008B180F280B1911280C1B172825288B105B
:1000200025280B118B12FA308100231425280C137C
:100030009F191B28202883161E08A4008312252838
:1000400083161E08A50083122528220E8300A10E08
:10005000210E8B17090083129F11A03087201F15D6
:100060001F1930288312080083129F15A0308720A3
:100070001F151F193928831208002D3083162502F9
:10008000031C53289C302502031C4D28472883124B
:1000900008128812081388130800831208168812A1
:1000A000081788130800831208168816081788177F
:1000B0000800293083162402031C672834302402E8
:1000C000031C6F283E302402031C77287F288312EC
:1000D0001A30950008108810081188110800831242
:1000E0004D309500081488100811881108008312FB
:1000F000C030950008148814081188110800831274
:10010000E630950008148814081588150800831235
:10011000A600A60B89280800831281010B11FA3072
:100120008100231C91280800860187018801861020
:100130000030950008008501860187018801A4012F
:10014000A501080083161B308500013086000030B1
:10015000870000308800E8308100F0308B004030AC
:100160008C0085309F0083121215C1309F000C3027
:1001700097009B200618BF28942063000000861477
:0C018000342059202B203D208C20BA2870
:02400E00733FFE
:00000001FF
