:020000040000FA
:100000002728210803190128080006161B200612BC
:100010001B200430A00086161B2086121B20A00B7C
:100020000B2806171B2006131B2086171B20061CF7
:1000300017288613080081010B11F63081000B1D73
:100040001F280800F0308505210885040800831664
:100050003030850009308600831285018601A001B9
:100060000F30A100851E322822200120861D36284F
:100070001B2006118614A10322201B2005208610B8
:0600800006151B203428C8
:00000001FF
