:020000040000FA
:02000000812855
:08000800090083129F11A030D2
:1000100067201F151F190A2883161E08A1008312C6
:10002000080083129F15A03067201F151F1916287E
:1000300083161E08A000831208002D3083162102AB
:10004000031C33289C302102031C2D2827288312EF
:1000500008128812081388130800831208168812E1
:1000600008178813080083120816881608178817BF
:100070000800293083162002031C47283430200250
:10008000031C4F283E302002031C57285F28831290
:100090001A30950008108810081188110800831282
:1000A0004D3095000814881008118811080083123B
:1000B000C0309500081488140811881108008312B4
:1000C000E630950008148814081588150800831276
:1000D000A200A20B69280800831281010B11810084
:1000E0000B1D7028080086018701880186100030EA
:1000F000950008008501860187018801A001A10102
:10010000080083161B308500013086000030870010
:1001100000308800E830810000308B0085309F007F
:100120008312121501309F000C3097007A200618B8
:100130009B287320972886141120392005201D2024
:020140009728FE
:02400E00733FFE
:00000001FF
