:020000040000FA
:02000000602876
:080008008B13A200030EA300FC
:100010000B190F280B181D288B1815282C280B11CD
:100020008B12F630810024142C288B100B1221081F
:1000300003192C28851305172C280B10061B2828BC
:10004000861B23282C288B10061E2C2806122C28F1
:100050000F30A10056202C28230E8300A20E220E62
:100060008B170900051386164F2086124F2086161F
:100070004F2086127A28A103562086144F2086101E
:100080004F200430A00006154F2006114F20A00B72
:10009000432886154F2086114F200616080024108D
:1000A000F63081008B16241C53280800F03085059B
:1000B0002108850408008B170B168B158B1208007E
:1000C000831630308500C1308600E830810008306A
:1000D0008E00B8308B00831207309F0085018601A7
:1000E000A001A201A3010F30A100A401851E762862
:1000F0005B2056205B206300000021080319322892
:10010000061C7A283B208B1563000000861F84287C
:08011000051385174F20782824
:02400E00733FFE
:00000001FF
